{
  "contractName": "Contract",
  "abi": [
    {
      "inputs": [],
      "payable": false,
      "stateMutability": "nonpayable",
      "type": "constructor"
    },
    {
      "constant": false,
      "inputs": [
        {
          "internalType": "string",
          "name": "_name",
          "type": "string"
        },
        {
          "internalType": "string",
          "name": "_gender",
          "type": "string"
        },
        {
          "internalType": "uint256",
          "name": "_age",
          "type": "uint256"
        },
        {
          "internalType": "string",
          "name": "_residence",
          "type": "string"
        },
        {
          "internalType": "string",
          "name": "_subject",
          "type": "string"
        },
        {
          "internalType": "string",
          "name": "_resumeHash",
          "type": "string"
        }
      ],
      "name": "registerStudent",
      "outputs": [],
      "payable": false,
      "stateMutability": "nonpayable",
      "type": "function"
    },
    {
      "constant": true,
      "inputs": [
        {
          "internalType": "address",
          "name": "myaddress",
          "type": "address"
        }
      ],
      "name": "StudentValidCheck",
      "outputs": [
        {
          "internalType": "bool",
          "name": "",
          "type": "bool"
        }
      ],
      "payable": false,
      "stateMutability": "view",
      "type": "function"
    },
    {
      "constant": false,
      "inputs": [
        {
          "internalType": "string",
          "name": "_name",
          "type": "string"
        },
        {
          "internalType": "string",
          "name": "_gender",
          "type": "string"
        },
        {
          "internalType": "uint256",
          "name": "_age",
          "type": "uint256"
        },
        {
          "internalType": "string",
          "name": "_residence",
          "type": "string"
        },
        {
          "internalType": "string",
          "name": "_subject",
          "type": "string"
        },
        {
          "internalType": "string",
          "name": "_resumeHash",
          "type": "string"
        }
      ],
      "name": "registerTutors",
      "outputs": [],
      "payable": false,
      "stateMutability": "nonpayable",
      "type": "function"
    },
    {
      "constant": true,
      "inputs": [
        {
          "internalType": "address",
          "name": "myaddress",
          "type": "address"
        }
      ],
      "name": "TutorValidCheck",
      "outputs": [
        {
          "internalType": "bool",
          "name": "",
          "type": "bool"
        }
      ],
      "payable": false,
      "stateMutability": "view",
      "type": "function"
    },
    {
      "constant": true,
      "inputs": [],
      "name": "getNumOfStudents",
      "outputs": [
        {
          "internalType": "uint256",
          "name": "",
          "type": "uint256"
        }
      ],
      "payable": false,
      "stateMutability": "view",
      "type": "function"
    },
    {
      "constant": true,
      "inputs": [],
      "name": "getNumOfTutors",
      "outputs": [
        {
          "internalType": "uint256",
          "name": "",
          "type": "uint256"
        }
      ],
      "payable": false,
      "stateMutability": "view",
      "type": "function"
    },
    {
      "constant": true,
      "inputs": [
        {
          "internalType": "address",
          "name": "myaddress",
          "type": "address"
        }
      ],
      "name": "getStudentInfoByAddress",
      "outputs": [
        {
          "internalType": "string",
          "name": "",
          "type": "string"
        },
        {
          "internalType": "string",
          "name": "",
          "type": "string"
        },
        {
          "internalType": "uint256",
          "name": "",
          "type": "uint256"
        },
        {
          "internalType": "string",
          "name": "",
          "type": "string"
        },
        {
          "internalType": "string",
          "name": "",
          "type": "string"
        },
        {
          "internalType": "string",
          "name": "",
          "type": "string"
        }
      ],
      "payable": false,
      "stateMutability": "view",
      "type": "function"
    },
    {
      "constant": true,
      "inputs": [
        {
          "internalType": "address",
          "name": "myaddress",
          "type": "address"
        }
      ],
      "name": "getTutorInfoByAddress",
      "outputs": [
        {
          "internalType": "string",
          "name": "",
          "type": "string"
        },
        {
          "internalType": "string",
          "name": "",
          "type": "string"
        },
        {
          "internalType": "uint256",
          "name": "",
          "type": "uint256"
        },
        {
          "internalType": "string",
          "name": "",
          "type": "string"
        },
        {
          "internalType": "string",
          "name": "",
          "type": "string"
        },
        {
          "internalType": "string",
          "name": "",
          "type": "string"
        }
      ],
      "payable": false,
      "stateMutability": "view",
      "type": "function"
    },
    {
      "constant": true,
      "inputs": [
        {
          "internalType": "uint256",
          "name": "_index",
          "type": "uint256"
        }
      ],
      "name": "getStudentInfoByIndex",
      "outputs": [
        {
          "internalType": "string",
          "name": "",
          "type": "string"
        },
        {
          "internalType": "string",
          "name": "",
          "type": "string"
        },
        {
          "internalType": "uint256",
          "name": "",
          "type": "uint256"
        },
        {
          "internalType": "string",
          "name": "",
          "type": "string"
        },
        {
          "internalType": "string",
          "name": "",
          "type": "string"
        },
        {
          "internalType": "string",
          "name": "",
          "type": "string"
        }
      ],
      "payable": false,
      "stateMutability": "view",
      "type": "function"
    },
    {
      "constant": true,
      "inputs": [
        {
          "internalType": "uint256",
          "name": "_index",
          "type": "uint256"
        }
      ],
      "name": "getTutorInfoByIndex",
      "outputs": [
        {
          "internalType": "string",
          "name": "",
          "type": "string"
        },
        {
          "internalType": "string",
          "name": "",
          "type": "string"
        },
        {
          "internalType": "uint256",
          "name": "",
          "type": "uint256"
        },
        {
          "internalType": "string",
          "name": "",
          "type": "string"
        },
        {
          "internalType": "string",
          "name": "",
          "type": "string"
        },
        {
          "internalType": "string",
          "name": "",
          "type": "string"
        }
      ],
      "payable": false,
      "stateMutability": "view",
      "type": "function"
    },
    {
      "constant": false,
      "inputs": [],
      "name": "getStudentResume",
      "outputs": [],
      "payable": true,
      "stateMutability": "payable",
      "type": "function"
    },
    {
      "constant": false,
      "inputs": [],
      "name": "getTutorResume",
      "outputs": [],
      "payable": true,
      "stateMutability": "payable",
      "type": "function"
    }
  ],
  "bytecode": "0x608060405234801561001057600080fd5b50336000806101000a81548173ffffffffffffffffffffffffffffffffffffffff021916908373ffffffffffffffffffffffffffffffffffffffff160217905550612550806100606000396000f3fe6080604052600436106100a75760003560e01c80638fafc9da116100645780638fafc9da146101ea578063a80a83ed14610227578063b93bad1a14610231578063c80927a714610273578063e08aeb1d1461027d578063f92d05c9146102a8576100a7565b806325c6cdaf146100ac5780632915d463146100ee578063364a39871461012b578063520bcb62146101545780638a1a4535146101965780638f5801ed146101bf575b600080fd5b3480156100b857600080fd5b506100d360048036036100ce9190810190612295565b6102ea565b6040516100e596959493929190612330565b60405180910390f35b3480156100fa57600080fd5b506101156004803603610110919081019061216b565b6106ca565b6040516101229190612315565b60405180910390f35b34801561013757600080fd5b50610152600480360361014d9190810190612194565b610917565b005b34801561016057600080fd5b5061017b6004803603610176919081019061216b565b610c23565b60405161018d96959493929190612330565b60405180910390f35b3480156101a257600080fd5b506101bd60048036036101b89190810190612194565b6110db565b005b3480156101cb57600080fd5b506101d46113e7565b6040516101e191906123b4565b60405180910390f35b3480156101f657600080fd5b50610211600480360361020c919081019061216b565b6113f1565b60405161021e9190612315565b60405180910390f35b61022f61163e565b005b34801561023d57600080fd5b506102586004803603610253919081019061216b565b6116b2565b60405161026a96959493929190612330565b60405180910390f35b61027b611b6a565b005b34801561028957600080fd5b50610292611bde565b60405161029f91906123b4565b60405180910390f35b3480156102b457600080fd5b506102cf60048036036102ca9190810190612295565b611be8565b6040516102e196959493929190612330565b60405180910390f35b606080600060608060606004878154811061030157fe5b90600052602060002090600602016000016004888154811061031f57fe5b90600052602060002090600602016001016004898154811061033d57fe5b90600052602060002090600602016002015460048a8154811061035c57fe5b906000526020600020906006020160030160048b8154811061037a57fe5b906000526020600020906006020160040160048c8154811061039857fe5b9060005260206000209060060201600501858054600181600116156101000203166002900480601f01602080910402602001604051908101604052809291908181526020018280546001816001161561010002031660029004801561043e5780601f106104135761010080835404028352916020019161043e565b820191906000526020600020905b81548152906001019060200180831161042157829003601f168201915b50505050509550848054600181600116156101000203166002900480601f0160208091040260200160405190810160405280929190818152602001828054600181600116156101000203166002900480156104da5780601f106104af576101008083540402835291602001916104da565b820191906000526020600020905b8154815290600101906020018083116104bd57829003601f168201915b50505050509450828054600181600116156101000203166002900480601f0160208091040260200160405190810160405280929190818152602001828054600181600116156101000203166002900480156105765780601f1061054b57610100808354040283529160200191610576565b820191906000526020600020905b81548152906001019060200180831161055957829003601f168201915b50505050509250818054600181600116156101000203166002900480601f0160208091040260200160405190810160405280929190818152602001828054600181600116156101000203166002900480156106125780601f106105e757610100808354040283529160200191610612565b820191906000526020600020905b8154815290600101906020018083116105f557829003601f168201915b50505050509150808054600181600116156101000203166002900480601f0160208091040260200160405190810160405280929190818152602001828054600181600116156101000203166002900480156106ae5780601f10610683576101008083540402835291602001916106ae565b820191906000526020600020905b81548152906001019060200180831161069157829003601f168201915b5050505050905095509550955095509550955091939550919395565b600080600160008473ffffffffffffffffffffffffffffffffffffffff1673ffffffffffffffffffffffffffffffffffffffff168152602001908152602001600020600001805460018160011615610100020316600290049050141561072f57600080fd5b6000600160008473ffffffffffffffffffffffffffffffffffffffff1673ffffffffffffffffffffffffffffffffffffffff168152602001908152602001600020600101805460018160011615610100020316600290049050141561079357600080fd5b6000600160008473ffffffffffffffffffffffffffffffffffffffff1673ffffffffffffffffffffffffffffffffffffffff1681526020019081526020016000206002015414156107e357600080fd5b6000600160008473ffffffffffffffffffffffffffffffffffffffff1673ffffffffffffffffffffffffffffffffffffffff168152602001908152602001600020600301805460018160011615610100020316600290049050141561084757600080fd5b6000600160008473ffffffffffffffffffffffffffffffffffffffff1673ffffffffffffffffffffffffffffffffffffffff16815260200190815260200160002060040180546001816001161561010002031660029004905014156108ab57600080fd5b602e600160008473ffffffffffffffffffffffffffffffffffffffff1673ffffffffffffffffffffffffffffffffffffffff1681526020019081526020016000206005018054600181600116156101000203166002900490501461090e57600080fd5b60019050919050565b85600260003373ffffffffffffffffffffffffffffffffffffffff1673ffffffffffffffffffffffffffffffffffffffff168152602001908152602001600020600001908051906020019061096d929190611fc8565b5084600260003373ffffffffffffffffffffffffffffffffffffffff1673ffffffffffffffffffffffffffffffffffffffff16815260200190815260200160002060010190805190602001906109c4929190611fc8565b5083600260003373ffffffffffffffffffffffffffffffffffffffff1673ffffffffffffffffffffffffffffffffffffffff1681526020019081526020016000206002018190555082600260003373ffffffffffffffffffffffffffffffffffffffff1673ffffffffffffffffffffffffffffffffffffffff1681526020019081526020016000206003019080519060200190610a62929190611fc8565b5081600260003373ffffffffffffffffffffffffffffffffffffffff1673ffffffffffffffffffffffffffffffffffffffff1681526020019081526020016000206004019080519060200190610ab9929190611fc8565b5080600260003373ffffffffffffffffffffffffffffffffffffffff1673ffffffffffffffffffffffffffffffffffffffff1681526020019081526020016000206005019080519060200190610b10929190611fc8565b5060046040518060c0016040528088815260200187815260200186815260200185815260200184815260200183815250908060018154018082558091505090600182039060005260206000209060060201600090919290919091506000820151816000019080519060200190610b87929190612048565b506020820151816001019080519060200190610ba4929190612048565b50604082015181600201556060820151816003019080519060200190610bcb929190612048565b506080820151816004019080519060200190610be8929190612048565b5060a0820151816005019080519060200190610c05929190612048565b50505050600660008154809291906001019190505550505050505050565b60608060006060806060600260008873ffffffffffffffffffffffffffffffffffffffff1673ffffffffffffffffffffffffffffffffffffffff168152602001908152602001600020600001600260008973ffffffffffffffffffffffffffffffffffffffff1673ffffffffffffffffffffffffffffffffffffffff168152602001908152602001600020600101600260008a73ffffffffffffffffffffffffffffffffffffffff1673ffffffffffffffffffffffffffffffffffffffff16815260200190815260200160002060020154600260008b73ffffffffffffffffffffffffffffffffffffffff1673ffffffffffffffffffffffffffffffffffffffff168152602001908152602001600020600301600260008c73ffffffffffffffffffffffffffffffffffffffff1673ffffffffffffffffffffffffffffffffffffffff168152602001908152602001600020600401600260008d73ffffffffffffffffffffffffffffffffffffffff1673ffffffffffffffffffffffffffffffffffffffff168152602001908152602001600020600501858054600181600116156101000203166002900480601f016020809104026020016040519081016040528092919081815260200182805460018160011615610100020316600290048015610e4f5780601f10610e2457610100808354040283529160200191610e4f565b820191906000526020600020905b815481529060010190602001808311610e3257829003601f168201915b50505050509550848054600181600116156101000203166002900480601f016020809104026020016040519081016040528092919081815260200182805460018160011615610100020316600290048015610eeb5780601f10610ec057610100808354040283529160200191610eeb565b820191906000526020600020905b815481529060010190602001808311610ece57829003601f168201915b50505050509450828054600181600116156101000203166002900480601f016020809104026020016040519081016040528092919081815260200182805460018160011615610100020316600290048015610f875780601f10610f5c57610100808354040283529160200191610f87565b820191906000526020600020905b815481529060010190602001808311610f6a57829003601f168201915b50505050509250818054600181600116156101000203166002900480601f0160208091040260200160405190810160405280929190818152602001828054600181600116156101000203166002900480156110235780601f10610ff857610100808354040283529160200191611023565b820191906000526020600020905b81548152906001019060200180831161100657829003601f168201915b50505050509150808054600181600116156101000203166002900480601f0160208091040260200160405190810160405280929190818152602001828054600181600116156101000203166002900480156110bf5780601f10611094576101008083540402835291602001916110bf565b820191906000526020600020905b8154815290600101906020018083116110a257829003601f168201915b5050505050905095509550955095509550955091939550919395565b85600160003373ffffffffffffffffffffffffffffffffffffffff1673ffffffffffffffffffffffffffffffffffffffff1681526020019081526020016000206000019080519060200190611131929190611fc8565b5084600160003373ffffffffffffffffffffffffffffffffffffffff1673ffffffffffffffffffffffffffffffffffffffff1681526020019081526020016000206001019080519060200190611188929190611fc8565b5083600160003373ffffffffffffffffffffffffffffffffffffffff1673ffffffffffffffffffffffffffffffffffffffff1681526020019081526020016000206002018190555082600160003373ffffffffffffffffffffffffffffffffffffffff1673ffffffffffffffffffffffffffffffffffffffff1681526020019081526020016000206003019080519060200190611226929190611fc8565b5081600160003373ffffffffffffffffffffffffffffffffffffffff1673ffffffffffffffffffffffffffffffffffffffff168152602001908152602001600020600401908051906020019061127d929190611fc8565b5080600160003373ffffffffffffffffffffffffffffffffffffffff1673ffffffffffffffffffffffffffffffffffffffff16815260200190815260200160002060050190805190602001906112d4929190611fc8565b5060036040518060c001604052808881526020018781526020018681526020018581526020018481526020018381525090806001815401808255809150509060018203906000526020600020906006020160009091929091909150600082015181600001908051906020019061134b929190612048565b506020820151816001019080519060200190611368929190612048565b5060408201518160020155606082015181600301908051906020019061138f929190612048565b5060808201518160040190805190602001906113ac929190612048565b5060a08201518160050190805190602001906113c9929190612048565b50505050600560008154809291906001019190505550505050505050565b6000600554905090565b600080600260008473ffffffffffffffffffffffffffffffffffffffff1673ffffffffffffffffffffffffffffffffffffffff168152602001908152602001600020600001805460018160011615610100020316600290049050141561145657600080fd5b6000600260008473ffffffffffffffffffffffffffffffffffffffff1673ffffffffffffffffffffffffffffffffffffffff16815260200190815260200160002060010180546001816001161561010002031660029004905014156114ba57600080fd5b6000600260008473ffffffffffffffffffffffffffffffffffffffff1673ffffffffffffffffffffffffffffffffffffffff16815260200190815260200160002060020154141561150a57600080fd5b6000600260008473ffffffffffffffffffffffffffffffffffffffff1673ffffffffffffffffffffffffffffffffffffffff168152602001908152602001600020600301805460018160011615610100020316600290049050141561156e57600080fd5b6000600260008473ffffffffffffffffffffffffffffffffffffffff1673ffffffffffffffffffffffffffffffffffffffff16815260200190815260200160002060040180546001816001161561010002031660029004905014156115d257600080fd5b602e600260008473ffffffffffffffffffffffffffffffffffffffff1673ffffffffffffffffffffffffffffffffffffffff1681526020019081526020016000206005018054600181600116156101000203166002900490501461163557600080fd5b60019050919050565b611647336106ca565b506000809054906101000a900473ffffffffffffffffffffffffffffffffffffffff1673ffffffffffffffffffffffffffffffffffffffff166108fc349081150290604051600060405180830381858888f193505050501580156116af573d6000803e3d6000fd5b50565b60608060006060806060600160008873ffffffffffffffffffffffffffffffffffffffff1673ffffffffffffffffffffffffffffffffffffffff168152602001908152602001600020600001600160008973ffffffffffffffffffffffffffffffffffffffff1673ffffffffffffffffffffffffffffffffffffffff168152602001908152602001600020600101600160008a73ffffffffffffffffffffffffffffffffffffffff1673ffffffffffffffffffffffffffffffffffffffff16815260200190815260200160002060020154600160008b73ffffffffffffffffffffffffffffffffffffffff1673ffffffffffffffffffffffffffffffffffffffff168152602001908152602001600020600301600160008c73ffffffffffffffffffffffffffffffffffffffff1673ffffffffffffffffffffffffffffffffffffffff168152602001908152602001600020600401600160008d73ffffffffffffffffffffffffffffffffffffffff1673ffffffffffffffffffffffffffffffffffffffff168152602001908152602001600020600501858054600181600116156101000203166002900480601f0160208091040260200160405190810160405280929190818152602001828054600181600116156101000203166002900480156118de5780601f106118b3576101008083540402835291602001916118de565b820191906000526020600020905b8154815290600101906020018083116118c157829003601f168201915b50505050509550848054600181600116156101000203166002900480601f01602080910402602001604051908101604052809291908181526020018280546001816001161561010002031660029004801561197a5780601f1061194f5761010080835404028352916020019161197a565b820191906000526020600020905b81548152906001019060200180831161195d57829003601f168201915b50505050509450828054600181600116156101000203166002900480601f016020809104026020016040519081016040528092919081815260200182805460018160011615610100020316600290048015611a165780601f106119eb57610100808354040283529160200191611a16565b820191906000526020600020905b8154815290600101906020018083116119f957829003601f168201915b50505050509250818054600181600116156101000203166002900480601f016020809104026020016040519081016040528092919081815260200182805460018160011615610100020316600290048015611ab25780601f10611a8757610100808354040283529160200191611ab2565b820191906000526020600020905b815481529060010190602001808311611a9557829003601f168201915b50505050509150808054600181600116156101000203166002900480601f016020809104026020016040519081016040528092919081815260200182805460018160011615610100020316600290048015611b4e5780601f10611b2357610100808354040283529160200191611b4e565b820191906000526020600020905b815481529060010190602001808311611b3157829003601f168201915b5050505050905095509550955095509550955091939550919395565b611b73336113f1565b506000809054906101000a900473ffffffffffffffffffffffffffffffffffffffff1673ffffffffffffffffffffffffffffffffffffffff166108fc349081150290604051600060405180830381858888f19350505050158015611bdb573d6000803e3d6000fd5b50565b6000600654905090565b6060806000606080606060038781548110611bff57fe5b906000526020600020906006020160000160038881548110611c1d57fe5b906000526020600020906006020160010160038981548110611c3b57fe5b90600052602060002090600602016002015460038a81548110611c5a57fe5b906000526020600020906006020160030160038b81548110611c7857fe5b906000526020600020906006020160040160038c81548110611c9657fe5b9060005260206000209060060201600501858054600181600116156101000203166002900480601f016020809104026020016040519081016040528092919081815260200182805460018160011615610100020316600290048015611d3c5780601f10611d1157610100808354040283529160200191611d3c565b820191906000526020600020905b815481529060010190602001808311611d1f57829003601f168201915b50505050509550848054600181600116156101000203166002900480601f016020809104026020016040519081016040528092919081815260200182805460018160011615610100020316600290048015611dd85780601f10611dad57610100808354040283529160200191611dd8565b820191906000526020600020905b815481529060010190602001808311611dbb57829003601f168201915b50505050509450828054600181600116156101000203166002900480601f016020809104026020016040519081016040528092919081815260200182805460018160011615610100020316600290048015611e745780601f10611e4957610100808354040283529160200191611e74565b820191906000526020600020905b815481529060010190602001808311611e5757829003601f168201915b50505050509250818054600181600116156101000203166002900480601f016020809104026020016040519081016040528092919081815260200182805460018160011615610100020316600290048015611f105780601f10611ee557610100808354040283529160200191611f10565b820191906000526020600020905b815481529060010190602001808311611ef357829003601f168201915b50505050509150808054600181600116156101000203166002900480601f016020809104026020016040519081016040528092919081815260200182805460018160011615610100020316600290048015611fac5780601f10611f8157610100808354040283529160200191611fac565b820191906000526020600020905b815481529060010190602001808311611f8f57829003601f168201915b5050505050905095509550955095509550955091939550919395565b828054600181600116156101000203166002900490600052602060002090601f016020900481019282601f1061200957805160ff1916838001178555612037565b82800160010185558215612037579182015b8281111561203657825182559160200191906001019061201b565b5b50905061204491906120c8565b5090565b828054600181600116156101000203166002900490600052602060002090601f016020900481019282601f1061208957805160ff19168380011785556120b7565b828001600101855582156120b7579182015b828111156120b657825182559160200191906001019061209b565b5b5090506120c491906120c8565b5090565b6120ea91905b808211156120e65760008160009055506001016120ce565b5090565b90565b6000813590506120fc816124df565b92915050565b600082601f83011261211357600080fd5b8135612126612121826123fc565b6123cf565b9150808252602083016020830185838301111561214257600080fd5b61214d83828461248c565b50505092915050565b600081359050612165816124f6565b92915050565b60006020828403121561217d57600080fd5b600061218b848285016120ed565b91505092915050565b60008060008060008060c087890312156121ad57600080fd5b600087013567ffffffffffffffff8111156121c757600080fd5b6121d389828a01612102565b965050602087013567ffffffffffffffff8111156121f057600080fd5b6121fc89828a01612102565b955050604061220d89828a01612156565b945050606087013567ffffffffffffffff81111561222a57600080fd5b61223689828a01612102565b935050608087013567ffffffffffffffff81111561225357600080fd5b61225f89828a01612102565b92505060a087013567ffffffffffffffff81111561227c57600080fd5b61228889828a01612102565b9150509295509295509295565b6000602082840312156122a757600080fd5b60006122b584828501612156565b91505092915050565b6122c781612456565b82525050565b60006122d882612428565b6122e28185612433565b93506122f281856020860161249b565b6122fb816124ce565b840191505092915050565b61230f81612482565b82525050565b600060208201905061232a60008301846122be565b92915050565b600060c082019050818103600083015261234a81896122cd565b9050818103602083015261235e81886122cd565b905061236d6040830187612306565b818103606083015261237f81866122cd565b9050818103608083015261239381856122cd565b905081810360a08301526123a781846122cd565b9050979650505050505050565b60006020820190506123c96000830184612306565b92915050565b6000604051905081810181811067ffffffffffffffff821117156123f257600080fd5b8060405250919050565b600067ffffffffffffffff82111561241357600080fd5b601f19601f8301169050602081019050919050565b600081519050919050565b600082825260208201905092915050565b600061244f82612462565b9050919050565b60008115159050919050565b600073ffffffffffffffffffffffffffffffffffffffff82169050919050565b6000819050919050565b82818337600083830152505050565b60005b838110156124b957808201518184015260208101905061249e565b838111156124c8576000848401525b50505050565b6000601f19601f8301169050919050565b6124e881612444565b81146124f357600080fd5b50565b6124ff81612482565b811461250a57600080fd5b5056fea365627a7a72315820f8cbc14ad097ff894ad895eef0820198180488d0ffdcf4cc545378e05e3b20fd6c6578706572696d656e74616cf564736f6c63430005100040",
  "source": "\r\n//0xb84b12e953f5bcf01b05f926728e855f2d4a67a9  contract address on rinkeby\r\n//deployed using remix \r\npragma solidity ^0.5.0;\r\npragma experimental ABIEncoderV2;\r\n\r\ncontract Contract {\r\n\r\n       struct User {\r\n        string name;\r\n        string gender;\r\n        uint age;\r\n        string residence;\r\n        string subject;\r\n        string resumeHash;\r\n    }\r\n\r\n    address payable owner;\r\n    \r\n    mapping(address => User) studentInfo;\r\n    mapping(address => User) tutorInfo;\r\n    \r\n    User[] students;\r\n    User[] tutors;\r\n    \r\n    uint numberOfStudents;\r\n    uint numberOfTutors;\r\n    \r\n    constructor () public {\r\n      owner=msg.sender;\r\n    }\r\n\r\n\r\n    function registerStudent(string memory _name, string memory _gender, uint _age, string memory _residence, string memory _subject, string memory _resumeHash) public {\r\n        studentInfo[msg.sender].name=_name;\r\n        studentInfo[msg.sender].gender=_gender;\r\n        studentInfo[msg.sender].age=_age;\r\n        studentInfo[msg.sender].residence=_residence;\r\n        studentInfo[msg.sender].subject=_subject;\r\n        studentInfo[msg.sender].resumeHash=_resumeHash;\r\n        students.push(User(_name, _gender, _age, _residence, _subject, _resumeHash));\r\n        numberOfStudents++;\r\n    }\r\n    \r\n    function StudentValidCheck(address myaddress) public view returns(bool) {\r\n        require(bytes(studentInfo[myaddress].name).length != 0);\r\n        require(bytes(studentInfo[myaddress].gender).length != 0);\r\n        require(studentInfo[myaddress].age!=0);\r\n        require(bytes(studentInfo[myaddress].residence).length != 0);\r\n        require(bytes(studentInfo[myaddress].subject).length != 0);\r\n        require(bytes(studentInfo[myaddress].resumeHash).length == 46);\r\n        return true;\r\n    }\r\n\r\n    function registerTutors(string memory _name, string memory _gender, uint _age, string memory _residence, string memory _subject, string memory _resumeHash) public {\r\n        tutorInfo[msg.sender].name=_name;\r\n        tutorInfo[msg.sender].gender=_gender;\r\n        tutorInfo[msg.sender].age=_age;\r\n        tutorInfo[msg.sender].residence=_residence;\r\n        tutorInfo[msg.sender].subject=_subject;\r\n        tutorInfo[msg.sender].resumeHash=_resumeHash;\r\n        tutors.push(User(_name, _gender, _age, _residence, _subject, _resumeHash)) ;\r\n        numberOfTutors++;\r\n    }\r\n\r\n    function TutorValidCheck(address myaddress) public view returns(bool) {\r\n        require(bytes(tutorInfo[myaddress].name).length != 0);\r\n        require(bytes(tutorInfo[myaddress].gender).length != 0);\r\n        require(tutorInfo[myaddress].age!=0);\r\n        require(bytes(tutorInfo[myaddress].residence).length != 0);\r\n        require(bytes(tutorInfo[myaddress].subject).length != 0);\r\n        require(bytes(tutorInfo[myaddress].resumeHash).length == 46);\r\n        return true;\r\n    }\r\n    \r\n    function getNumOfStudents() public view returns(uint) {\r\n        return numberOfStudents;\r\n    }\r\n\r\n    function getNumOfTutors() public view returns(uint) {\r\n        return numberOfTutors;\r\n    }\r\n    \r\n\r\n    \r\n    function getStudentInfoByAddress(address myaddress) public view returns (string memory, string memory, uint , string memory, string memory, string memory) {\r\n        return (studentInfo[myaddress].name, studentInfo[myaddress].gender, studentInfo[myaddress].age, studentInfo[myaddress].residence, studentInfo[myaddress].subject, studentInfo[myaddress].resumeHash);\r\n    }\r\n    \r\n    function getTutorInfoByAddress(address myaddress) public view returns (string memory, string memory, uint , string memory, string memory, string memory) {\r\n        return (tutorInfo[myaddress].name, tutorInfo[myaddress].gender, tutorInfo[myaddress].age, tutorInfo[myaddress].residence, tutorInfo[myaddress].subject, tutorInfo[myaddress].resumeHash);\r\n    }\r\n    \r\n    function getStudentInfoByIndex(uint _index) public view returns (string memory, string memory, uint , string memory, string memory, string memory) {\r\n        return (students[_index].name, students[_index].gender, students[_index].age, students[_index].residence, students[_index].subject, students[_index].resumeHash);\r\n    }\r\n\r\n    function getTutorInfoByIndex(uint _index) public view returns (string memory, string memory, uint , string memory, string memory, string memory) {\r\n        return (tutors[_index].name, tutors[_index].gender, tutors[_index].age, tutors[_index].residence, tutors[_index].subject, tutors[_index].resumeHash);\r\n    }\r\n\r\n    function getStudentResume() public payable {\r\n      TutorValidCheck(msg.sender);\r\n      owner.transfer(msg.value);\r\n \r\n    }\r\n\r\n    function getTutorResume() public payable {\r\n      StudentValidCheck(msg.sender);\r\n      owner.transfer(msg.value);\r\n     \r\n    }\r\n\r\n\r\n    \r\n\r\n\r\n}",
  "sourcePath": "C:/Users/user/Documents/GitHub/EthereumClassFinalProject/truffle/contracts/storehash.sol",
  "compiler": {
    "name": "solc",
    "version": "0.5.16+commit.9c3226ce.Emscripten.clang"
  },
  "schemaVersion": "3.4.1",
  "updatedAt": "2021-07-14T07:21:33.565Z",
  "networkType": "ethereum",
  "devdoc": {
    "methods": {}
  },
  "userdoc": {
    "methods": {}
  }
}